{
    "LegacyTests/Cancun/BlockchainTests/InvalidBlocks/bc4895-withdrawals/twoIdenticalIndexDifferentValidator.json::twoIdenticalIndexDifferentValidator_Cancun" : {
        "_info" : {
            "comment" : "Test vectors BSHB0015",
            "filling-rpc-server" : "evmone-t8n 0.15.0+commit.18b8e952",
            "filling-tool-version" : "retesteth-0.3.3-discontinued+commit.f30e58c2.Linux.g++",
            "fixture-format" : "blockchain_test",
            "hash" : "0x1b48ed9220e1e1d033940688997d9e172e1f0f465bb9950620c4a7065594b519",
            "lllcversion" : "Version: 0.5.14-develop.2024.11.5+commit.b2b86751.mod.Linux.g++",
            "repo" : "ethereum/tests",
            "solidity" : "Version: 0.8.24+commit.e11b9ed9.Linux.g++",
            "source" : "LegacyTests/src/LegacyTests/Cancun/BlockchainTestsFiller/InvalidBlocks/bc4895-withdrawals/twoIdenticalIndexDifferentValidatorFiller.json",
            "sourceHash" : "0x4d5e0f287d8e41485647f7cd20b353ca4ddf3809b58c55854cc90078deeaafc3"
        },
        "blocks" : [
            {
                "blockHeader" : {
                    "baseFeePerGas" : "0x09",
                    "blobGasUsed" : "0x00",
                    "bloom" : "0x00000000000000000000000000000000000000000000000000000000000000000000000000000000000000000000000000000000000000000000000000000000000000000000000000000000000000000000000000000000000000000000000000000000000000000000000000000000000000000000000000000000000000000000000000000000000000000000000000000000000000000000000000000000000000000000000000000000000000000000000000000000000000000000000000000000000000000000000000000000000000000000000000000000000000000000000000000000000000000000000000000000000000000000000000000000",
                    "coinbase" : "0x2adc25665018aa1fe0e6bc666dac8fc2697ff9ba",
                    "difficulty" : "0x00",
                    "excessBlobGas" : "0x00",
                    "extraData" : "0x42",
                    "gasLimit" : "0x7fffffffffffffff",
                    "gasUsed" : "0x00",
                    "hash" : "0xcf33b65a6c0fbb5ac7fcee9c5122d25e9dc123afb1105d65b57f656a90312043",
                    "mixHash" : "0x56e81f171bcc55a6ff8345e692c0f86e5b48e01b996cadc001622fb5e363b421",
                    "nonce" : "0x0000000000000000",
                    "number" : "0x01",
                    "parentBeaconBlockRoot" : "0x0000000000000000000000000000000000000000000000000000000000000000",
                    "parentHash" : "0x286a26a6c05ea12f11b541486c5eb8ef0a36ce29b61e86f2a98886a3886b202c",
                    "receiptTrie" : "0x56e81f171bcc55a6ff8345e692c0f86e5b48e01b996cadc001622fb5e363b421",
                    "stateRoot" : "0x3e3c3bd34b8bd6be8d3730e7149339f454ba24641b74d30034492befa09a6cb3",
                    "timestamp" : "0x079e",
                    "transactionsTrie" : "0x56e81f171bcc55a6ff8345e692c0f86e5b48e01b996cadc001622fb5e363b421",
                    "uncleHash" : "0x1dcc4de8dec75d7aab85b567b6ccd41ad312451b948a7413f0a142fd40d49347",
                    "withdrawalsRoot" : "0x4a220ebe55034d51f8a58175bb504b6ebf883105010a1f6d42e557c18bbd5d69"
                },
                "blocknumber" : "1",
                "chainname" : "default",
                "rlp" : "0xf902aff9023ca0286a26a6c05ea12f11b541486c5eb8ef0a36ce29b61e86f2a98886a3886b202ca01dcc4de8dec75d7aab85b567b6ccd41ad312451b948a7413f0a142fd40d49347942adc25665018aa1fe0e6bc666dac8fc2697ff9baa03e3c3bd34b8bd6be8d3730e7149339f454ba24641b74d30034492befa09a6cb3a056e81f171bcc55a6ff8345e692c0f86e5b48e01b996cadc001622fb5e363b421a056e81f171bcc55a6ff8345e692c0f86e5b48e01b996cadc001622fb5e363b421b90100000000000000000000000000000000000000000000000000000000000000000000000000000000000000000000000000000000000000000000000000000000000000000000000000000000000000000000000000000000000000000000000000000000000000000000000000000000000000000000000000000000000000000000000000000000000000000000000000000000000000000000000000000000000000000000000000000000000000000000000000000000000000000000000000000000000000000000000000000000000000000000000000000000000000000000000000000000000000000000000000000000000000000000000000000000008001887fffffffffffffff8082079e42a056e81f171bcc55a6ff8345e692c0f86e5b48e01b996cadc001622fb5e363b42188000000000000000009a04a220ebe55034d51f8a58175bb504b6ebf883105010a1f6d42e557c18bbd5d698080a00000000000000000000000000000000000000000000000000000000000000000c0c0f86cda808094c94f5374fce5edbc8e2a8697c15331677e6ebf0b822710da028094c94f5374fce5edbc8e2a8697c15331677e6ebf0b822710da018094c94f5374fce5edbc8e2a8697c15331677e6ebf0b822710da020194c94f5374fce5edbc8e2a8697c15331677e6ebf0b822710",
                "transactions" : [
                ],
                "uncleHeaders" : [
                ],
                "withdrawals" : [
                    {
                        "address" : "0xc94f5374fce5edbc8e2a8697c15331677e6ebf0b",
                        "amount" : "0x2710",
                        "index" : "0x00",
                        "validatorIndex" : "0x00"
                    },
                    {
                        "address" : "0xc94f5374fce5edbc8e2a8697c15331677e6ebf0b",
                        "amount" : "0x2710",
                        "index" : "0x02",
                        "validatorIndex" : "0x00"
                    },
                    {
                        "address" : "0xc94f5374fce5edbc8e2a8697c15331677e6ebf0b",
                        "amount" : "0x2710",
                        "index" : "0x01",
                        "validatorIndex" : "0x00"
                    },
                    {
                        "address" : "0xc94f5374fce5edbc8e2a8697c15331677e6ebf0b",
                        "amount" : "0x2710",
                        "index" : "0x02",
                        "validatorIndex" : "0x01"
                    }
                ]
            }
        ],
        "genesisBlockHeader" : {
            "baseFeePerGas" : "0x0a",
            "blobGasUsed" : "0x00",
            "bloom" : "0x00000000000000000000000000000000000000000000000000000000000000000000000000000000000000000000000000000000000000000000000000000000000000000000000000000000000000000000000000000000000000000000000000000000000000000000000000000000000000000000000000000000000000000000000000000000000000000000000000000000000000000000000000000000000000000000000000000000000000000000000000000000000000000000000000000000000000000000000000000000000000000000000000000000000000000000000000000000000000000000000000000000000000000000000000000000",
            "coinbase" : "0x2adc25665018aa1fe0e6bc666dac8fc2697ff9ba",
            "difficulty" : "0x00",
            "excessBlobGas" : "0x00",
            "extraData" : "0x42",
            "gasLimit" : "0x7fffffffffffffff",
            "gasUsed" : "0x00",
            "hash" : "0x286a26a6c05ea12f11b541486c5eb8ef0a36ce29b61e86f2a98886a3886b202c",
            "mixHash" : "0x56e81f171bcc55a6ff8345e692c0f86e5b48e01b996cadc001622fb5e363b421",
            "nonce" : "0x0000000000000000",
            "number" : "0x00",
            "parentBeaconBlockRoot" : "0x0000000000000000000000000000000000000000000000000000000000000000",
            "parentHash" : "0x0000000000000000000000000000000000000000000000000000000000000000",
            "receiptTrie" : "0x56e81f171bcc55a6ff8345e692c0f86e5b48e01b996cadc001622fb5e363b421",
            "stateRoot" : "0xc9f38211bd47d18248e2bd461131b4b454dde6dd63ab70d57e157d2fe058b342",
            "timestamp" : "0x03b6",
            "transactionsTrie" : "0x56e81f171bcc55a6ff8345e692c0f86e5b48e01b996cadc001622fb5e363b421",
            "uncleHash" : "0x1dcc4de8dec75d7aab85b567b6ccd41ad312451b948a7413f0a142fd40d49347",
            "withdrawalsRoot" : "0x56e81f171bcc55a6ff8345e692c0f86e5b48e01b996cadc001622fb5e363b421"
        },
        "genesisRLP" : "0xf90242f9023ca00000000000000000000000000000000000000000000000000000000000000000a01dcc4de8dec75d7aab85b567b6ccd41ad312451b948a7413f0a142fd40d49347942adc25665018aa1fe0e6bc666dac8fc2697ff9baa0c9f38211bd47d18248e2bd461131b4b454dde6dd63ab70d57e157d2fe058b342a056e81f171bcc55a6ff8345e692c0f86e5b48e01b996cadc001622fb5e363b421a056e81f171bcc55a6ff8345e692c0f86e5b48e01b996cadc001622fb5e363b421b90100000000000000000000000000000000000000000000000000000000000000000000000000000000000000000000000000000000000000000000000000000000000000000000000000000000000000000000000000000000000000000000000000000000000000000000000000000000000000000000000000000000000000000000000000000000000000000000000000000000000000000000000000000000000000000000000000000000000000000000000000000000000000000000000000000000000000000000000000000000000000000000000000000000000000000000000000000000000000000000000000000000000000000000000000000000008080887fffffffffffffff808203b642a056e81f171bcc55a6ff8345e692c0f86e5b48e01b996cadc001622fb5e363b4218800000000000000000aa056e81f171bcc55a6ff8345e692c0f86e5b48e01b996cadc001622fb5e363b4218080a00000000000000000000000000000000000000000000000000000000000000000c0c0c0",
        "lastblockhash" : "0xcf33b65a6c0fbb5ac7fcee9c5122d25e9dc123afb1105d65b57f656a90312043",
        "network" : "Cancun",
        "postState" : {
            "0x000f3df6d732807ef1319fb7b8bb8522d0beac02" : {
                "balance" : "0x00",
                "code" : "0x3373fffffffffffffffffffffffffffffffffffffffe14604d57602036146024575f5ffd5b5f35801560495762001fff810690815414603c575f5ffd5b62001fff01545f5260205ff35b5f5ffd5b62001fff42064281555f359062001fff015500",
                "nonce" : "0x01",
                "storage" : {
                    "0x03b6" : "0x03b6",
                    "0x079e" : "0x079e"
                }
            },
            "0xa94f5374fce5edbc8e2a8697c15331677e6ebf0b" : {
                "balance" : "0x016345785d8a0000",
                "code" : "0x",
                "nonce" : "0x00",
                "storage" : {
                }
            },
            "0xc94f5374fce5edbc8e2a8697c15331677e6ebf0b" : {
                "balance" : "0x246139ca8000",
                "code" : "0x",
                "nonce" : "0x00",
                "storage" : {
                }
            }
        },
        "pre" : {
            "0x000f3df6d732807ef1319fb7b8bb8522d0beac02" : {
                "balance" : "0x00",
                "code" : "0x3373fffffffffffffffffffffffffffffffffffffffe14604d57602036146024575f5ffd5b5f35801560495762001fff810690815414603c575f5ffd5b62001fff01545f5260205ff35b5f5ffd5b62001fff42064281555f359062001fff015500",
                "nonce" : "0x01",
                "storage" : {
                    "0x03b6" : "0x03b6"
                }
            },
            "0xa94f5374fce5edbc8e2a8697c15331677e6ebf0b" : {
                "balance" : "0x016345785d8a0000",
                "code" : "0x",
                "nonce" : "0x00",
                "storage" : {
                }
            }
        },
        "sealEngine" : "NoProof"
    },
    "LegacyTests/Cancun/BlockchainTests/InvalidBlocks/bc4895-withdrawals/twoIdenticalIndexDifferentValidator.json::twoIdenticalIndexDifferentValidator_Shanghai" : {
        "_info" : {
            "comment" : "Test vectors BSHB0015",
            "filling-rpc-server" : "evmone-t8n 0.15.0+commit.18b8e952",
            "filling-tool-version" : "retesteth-0.3.3-discontinued+commit.f30e58c2.Linux.g++",
            "fixture-format" : "blockchain_test",
            "hash" : "0xda811efe6d444e4844c41cf3192917ac088f501a5ffce995e6281f6138b52463",
            "lllcversion" : "Version: 0.5.14-develop.2024.11.5+commit.b2b86751.mod.Linux.g++",
            "repo" : "ethereum/tests",
            "solidity" : "Version: 0.8.24+commit.e11b9ed9.Linux.g++",
            "source" : "LegacyTests/src/LegacyTests/Cancun/BlockchainTestsFiller/InvalidBlocks/bc4895-withdrawals/twoIdenticalIndexDifferentValidatorFiller.json",
            "sourceHash" : "0x4d5e0f287d8e41485647f7cd20b353ca4ddf3809b58c55854cc90078deeaafc3"
        },
        "blocks" : [
            {
                "blockHeader" : {
                    "baseFeePerGas" : "0x09",
                    "bloom" : "0x00000000000000000000000000000000000000000000000000000000000000000000000000000000000000000000000000000000000000000000000000000000000000000000000000000000000000000000000000000000000000000000000000000000000000000000000000000000000000000000000000000000000000000000000000000000000000000000000000000000000000000000000000000000000000000000000000000000000000000000000000000000000000000000000000000000000000000000000000000000000000000000000000000000000000000000000000000000000000000000000000000000000000000000000000000000",
                    "coinbase" : "0x2adc25665018aa1fe0e6bc666dac8fc2697ff9ba",
                    "difficulty" : "0x00",
                    "extraData" : "0x42",
                    "gasLimit" : "0x7fffffffffffffff",
                    "gasUsed" : "0x00",
                    "hash" : "0x0191e225032ff19e82464958f0d698b4b31b41ed252026b86995efc9a46f4e39",
                    "mixHash" : "0x56e81f171bcc55a6ff8345e692c0f86e5b48e01b996cadc001622fb5e363b421",
                    "nonce" : "0x0000000000000000",
                    "number" : "0x01",
                    "parentHash" : "0x151934ad9b654c50197f37018ee5ee9bb922dec0a1b5e24a6d679cb111cdb107",
                    "receiptTrie" : "0x56e81f171bcc55a6ff8345e692c0f86e5b48e01b996cadc001622fb5e363b421",
                    "stateRoot" : "0xccf7b62d616c2ad7af862d67b9dcd2119a90cebbff8c3cd1e5d7fc99f8755774",
                    "timestamp" : "0x079e",
                    "transactionsTrie" : "0x56e81f171bcc55a6ff8345e692c0f86e5b48e01b996cadc001622fb5e363b421",
                    "uncleHash" : "0x1dcc4de8dec75d7aab85b567b6ccd41ad312451b948a7413f0a142fd40d49347",
                    "withdrawalsRoot" : "0x4a220ebe55034d51f8a58175bb504b6ebf883105010a1f6d42e557c18bbd5d69"
                },
                "blocknumber" : "1",
                "chainname" : "default",
                "rlp" : "0xf9028cf90219a0151934ad9b654c50197f37018ee5ee9bb922dec0a1b5e24a6d679cb111cdb107a01dcc4de8dec75d7aab85b567b6ccd41ad312451b948a7413f0a142fd40d49347942adc25665018aa1fe0e6bc666dac8fc2697ff9baa0ccf7b62d616c2ad7af862d67b9dcd2119a90cebbff8c3cd1e5d7fc99f8755774a056e81f171bcc55a6ff8345e692c0f86e5b48e01b996cadc001622fb5e363b421a056e81f171bcc55a6ff8345e692c0f86e5b48e01b996cadc001622fb5e363b421b90100000000000000000000000000000000000000000000000000000000000000000000000000000000000000000000000000000000000000000000000000000000000000000000000000000000000000000000000000000000000000000000000000000000000000000000000000000000000000000000000000000000000000000000000000000000000000000000000000000000000000000000000000000000000000000000000000000000000000000000000000000000000000000000000000000000000000000000000000000000000000000000000000000000000000000000000000000000000000000000000000000000000000000000000000000000008001887fffffffffffffff8082079e42a056e81f171bcc55a6ff8345e692c0f86e5b48e01b996cadc001622fb5e363b42188000000000000000009a04a220ebe55034d51f8a58175bb504b6ebf883105010a1f6d42e557c18bbd5d69c0c0f86cda808094c94f5374fce5edbc8e2a8697c15331677e6ebf0b822710da028094c94f5374fce5edbc8e2a8697c15331677e6ebf0b822710da018094c94f5374fce5edbc8e2a8697c15331677e6ebf0b822710da020194c94f5374fce5edbc8e2a8697c15331677e6ebf0b822710",
                "transactions" : [
                ],
                "uncleHeaders" : [
                ],
                "withdrawals" : [
                    {
                        "address" : "0xc94f5374fce5edbc8e2a8697c15331677e6ebf0b",
                        "amount" : "0x2710",
                        "index" : "0x00",
                        "validatorIndex" : "0x00"
                    },
                    {
                        "address" : "0xc94f5374fce5edbc8e2a8697c15331677e6ebf0b",
                        "amount" : "0x2710",
                        "index" : "0x02",
                        "validatorIndex" : "0x00"
                    },
                    {
                        "address" : "0xc94f5374fce5edbc8e2a8697c15331677e6ebf0b",
                        "amount" : "0x2710",
                        "index" : "0x01",
                        "validatorIndex" : "0x00"
                    },
                    {
                        "address" : "0xc94f5374fce5edbc8e2a8697c15331677e6ebf0b",
                        "amount" : "0x2710",
                        "index" : "0x02",
                        "validatorIndex" : "0x01"
                    }
                ]
            }
        ],
        "genesisBlockHeader" : {
            "baseFeePerGas" : "0x0a",
            "bloom" : "0x00000000000000000000000000000000000000000000000000000000000000000000000000000000000000000000000000000000000000000000000000000000000000000000000000000000000000000000000000000000000000000000000000000000000000000000000000000000000000000000000000000000000000000000000000000000000000000000000000000000000000000000000000000000000000000000000000000000000000000000000000000000000000000000000000000000000000000000000000000000000000000000000000000000000000000000000000000000000000000000000000000000000000000000000000000000",
            "coinbase" : "0x2adc25665018aa1fe0e6bc666dac8fc2697ff9ba",
            "difficulty" : "0x00",
            "extraData" : "0x42",
            "gasLimit" : "0x7fffffffffffffff",
            "gasUsed" : "0x00",
            "hash" : "0x151934ad9b654c50197f37018ee5ee9bb922dec0a1b5e24a6d679cb111cdb107",
            "mixHash" : "0x56e81f171bcc55a6ff8345e692c0f86e5b48e01b996cadc001622fb5e363b421",
            "nonce" : "0x0000000000000000",
            "number" : "0x00",
            "parentHash" : "0x0000000000000000000000000000000000000000000000000000000000000000",
            "receiptTrie" : "0x56e81f171bcc55a6ff8345e692c0f86e5b48e01b996cadc001622fb5e363b421",
            "stateRoot" : "0x046119afb1ab36aaa8f66088677ed96cd62762f6d3e65642898e189fbe702d51",
            "timestamp" : "0x03b6",
            "transactionsTrie" : "0x56e81f171bcc55a6ff8345e692c0f86e5b48e01b996cadc001622fb5e363b421",
            "uncleHash" : "0x1dcc4de8dec75d7aab85b567b6ccd41ad312451b948a7413f0a142fd40d49347",
            "withdrawalsRoot" : "0x56e81f171bcc55a6ff8345e692c0f86e5b48e01b996cadc001622fb5e363b421"
        },
        "genesisRLP" : "0xf9021ff90219a00000000000000000000000000000000000000000000000000000000000000000a01dcc4de8dec75d7aab85b567b6ccd41ad312451b948a7413f0a142fd40d49347942adc25665018aa1fe0e6bc666dac8fc2697ff9baa0046119afb1ab36aaa8f66088677ed96cd62762f6d3e65642898e189fbe702d51a056e81f171bcc55a6ff8345e692c0f86e5b48e01b996cadc001622fb5e363b421a056e81f171bcc55a6ff8345e692c0f86e5b48e01b996cadc001622fb5e363b421b90100000000000000000000000000000000000000000000000000000000000000000000000000000000000000000000000000000000000000000000000000000000000000000000000000000000000000000000000000000000000000000000000000000000000000000000000000000000000000000000000000000000000000000000000000000000000000000000000000000000000000000000000000000000000000000000000000000000000000000000000000000000000000000000000000000000000000000000000000000000000000000000000000000000000000000000000000000000000000000000000000000000000000000000000000000000008080887fffffffffffffff808203b642a056e81f171bcc55a6ff8345e692c0f86e5b48e01b996cadc001622fb5e363b4218800000000000000000aa056e81f171bcc55a6ff8345e692c0f86e5b48e01b996cadc001622fb5e363b421c0c0c0",
        "lastblockhash" : "0x0191e225032ff19e82464958f0d698b4b31b41ed252026b86995efc9a46f4e39",
        "network" : "Shanghai",
        "postState" : {
            "0xa94f5374fce5edbc8e2a8697c15331677e6ebf0b" : {
                "balance" : "0x016345785d8a0000",
                "code" : "0x",
                "nonce" : "0x00",
                "storage" : {
                }
            },
            "0xc94f5374fce5edbc8e2a8697c15331677e6ebf0b" : {
                "balance" : "0x246139ca8000",
                "code" : "0x",
                "nonce" : "0x00",
                "storage" : {
                }
            }
        },
        "pre" : {
            "0xa94f5374fce5edbc8e2a8697c15331677e6ebf0b" : {
                "balance" : "0x016345785d8a0000",
                "code" : "0x",
                "nonce" : "0x00",
                "storage" : {
                }
            }
        },
        "sealEngine" : "NoProof"
    }
}