{
    "LegacyTests/Cancun/BlockchainTests/InvalidBlocks/bcStateTests/ZeroValue_TransactionCALL_ToEmpty_OOGRevert.json::ZeroValue_TransactionCALL_ToEmpty_OOGRevert_Berlin" : {
        "_info" : {
            "comment" : "intrinsic oog revert",
            "filling-rpc-server" : "evmone-t8n 0.15.0+commit.18b8e952",
            "filling-tool-version" : "retesteth-0.3.3-discontinued+commit.f30e58c2.Linux.g++",
            "fixture-format" : "blockchain_test",
            "hash" : "0xa99c96cf4056d139d2986a15de8090fbce4ea404b13f2e812fbb13d25c7c4a25",
            "lllcversion" : "Version: 0.5.14-develop.2024.11.5+commit.b2b86751.mod.Linux.g++",
            "repo" : "ethereum/tests",
            "solidity" : "Version: 0.8.24+commit.e11b9ed9.Linux.g++",
            "source" : "LegacyTests/src/LegacyTests/Cancun/BlockchainTestsFiller/InvalidBlocks/bcStateTests/ZeroValue_TransactionCALL_ToEmpty_OOGRevertFiller.json",
            "sourceHash" : "0x8efca1a88f20ad3acaf33c021e5af6fb70a21541c933fc005b97f1dc7d53292b"
        },
        "blocks" : [
            {
                "blocknumber" : "1",
                "chainname" : "default",
                "expectException" : "TR_IntrinsicGas",
                "rlp" : "0xf9025ef901f5a00f239a780ff30676c2f3b185a17b80a14de3efe7667051ff78e8f4b18f791c3fa01dcc4de8dec75d7aab85b567b6ccd41ad312451b948a7413f0a142fd40d49347942adc25665018aa1fe0e6bc666dac8fc2697ff9baa0ac0fd0e85dd635c869a69c1a89b4982ce862f6e996aac792aaf1252243e24cc3a056e81f171bcc55a6ff8345e692c0f86e5b48e01b996cadc001622fb5e363b421a056e81f171bcc55a6ff8345e692c0f86e5b48e01b996cadc001622fb5e363b421b9010000000000000000000000000000000000000000000000000000000000000000000000000000000000000000000000000000000000000000000000000000000000000000000000000000000000000000000000000000000000000000000000000000000000000000000000000000000000000000000000000000000000000000000000000000000000000000000000000000000000000000000000000000000000000000000000000000000000000000000000000000000000000000000000000000000000000000000000000000000000000000000000000000000000000000000000000000000000000000000000000000000000000000000000000000000000830200000183989680808207d042a00000000000000000000000000000000000000000000000000000000000000000880000000000000000f863f861808203e8824e2094b94f5374fce5edbc8e2a8697c15331677e6ebf0b80801ca0c153e52971eb13c8353c6c3a6f5ccbbe41273af2db9743b664e125113187d56fa013c21557bee4342ff0fa2cbf533798b854b7b7547fa3d3519387ce696fb1e443c0",
                "rlp_decoded" : {
                    "blockHeader" : {
                        "bloom" : "0x00000000000000000000000000000000000000000000000000000000000000000000000000000000000000000000000000000000000000000000000000000000000000000000000000000000000000000000000000000000000000000000000000000000000000000000000000000000000000000000000000000000000000000000000000000000000000000000000000000000000000000000000000000000000000000000000000000000000000000000000000000000000000000000000000000000000000000000000000000000000000000000000000000000000000000000000000000000000000000000000000000000000000000000000000000000",
                        "coinbase" : "0x2adc25665018aa1fe0e6bc666dac8fc2697ff9ba",
                        "difficulty" : "0x020000",
                        "extraData" : "0x42",
                        "gasLimit" : "0x989680",
                        "gasUsed" : "0x00",
                        "hash" : "0xa65516ded5792550c2ec9fe88690b1dd471595dd9baf3eedce9e04abeb558ba0",
                        "mixHash" : "0x0000000000000000000000000000000000000000000000000000000000000000",
                        "nonce" : "0x0000000000000000",
                        "number" : "0x01",
                        "parentHash" : "0x0f239a780ff30676c2f3b185a17b80a14de3efe7667051ff78e8f4b18f791c3f",
                        "receiptTrie" : "0x56e81f171bcc55a6ff8345e692c0f86e5b48e01b996cadc001622fb5e363b421",
                        "stateRoot" : "0xac0fd0e85dd635c869a69c1a89b4982ce862f6e996aac792aaf1252243e24cc3",
                        "timestamp" : "0x07d0",
                        "transactionsTrie" : "0x56e81f171bcc55a6ff8345e692c0f86e5b48e01b996cadc001622fb5e363b421",
                        "uncleHash" : "0x1dcc4de8dec75d7aab85b567b6ccd41ad312451b948a7413f0a142fd40d49347"
                    },
                    "transactions" : [
                        {
                            "data" : "0x",
                            "gasLimit" : "0x4e20",
                            "gasPrice" : "0x03e8",
                            "nonce" : "0x00",
                            "r" : "0xc153e52971eb13c8353c6c3a6f5ccbbe41273af2db9743b664e125113187d56f",
                            "s" : "0x13c21557bee4342ff0fa2cbf533798b854b7b7547fa3d3519387ce696fb1e443",
                            "sender" : "0xa94f5374fce5edbc8e2a8697c15331677e6ebf0b",
                            "to" : "0xb94f5374fce5edbc8e2a8697c15331677e6ebf0b",
                            "v" : "0x1c",
                            "value" : "0x00"
                        }
                    ],
                    "uncleHeaders" : [
                    ],
                    "withdrawals" : [
                    ]
                }
            }
        ],
        "genesisBlockHeader" : {
            "bloom" : "0x00000000000000000000000000000000000000000000000000000000000000000000000000000000000000000000000000000000000000000000000000000000000000000000000000000000000000000000000000000000000000000000000000000000000000000000000000000000000000000000000000000000000000000000000000000000000000000000000000000000000000000000000000000000000000000000000000000000000000000000000000000000000000000000000000000000000000000000000000000000000000000000000000000000000000000000000000000000000000000000000000000000000000000000000000000000",
            "coinbase" : "0x2adc25665018aa1fe0e6bc666dac8fc2697ff9ba",
            "difficulty" : "0x020000",
            "extraData" : "0x42",
            "gasLimit" : "0x989680",
            "gasUsed" : "0x00",
            "hash" : "0x0f239a780ff30676c2f3b185a17b80a14de3efe7667051ff78e8f4b18f791c3f",
            "mixHash" : "0x0000000000000000000000000000000000000000000000000000000000000000",
            "nonce" : "0x0000000000000000",
            "number" : "0x00",
            "parentHash" : "0x0000000000000000000000000000000000000000000000000000000000000000",
            "receiptTrie" : "0x56e81f171bcc55a6ff8345e692c0f86e5b48e01b996cadc001622fb5e363b421",
            "stateRoot" : "0x137accfabce83c4f192c91b88d6e5e5e6e58afa387137b16170fafd5114d8d45",
            "timestamp" : "0x03e8",
            "transactionsTrie" : "0x56e81f171bcc55a6ff8345e692c0f86e5b48e01b996cadc001622fb5e363b421",
            "uncleHash" : "0x1dcc4de8dec75d7aab85b567b6ccd41ad312451b948a7413f0a142fd40d49347"
        },
        "genesisRLP" : "0xf901faf901f5a00000000000000000000000000000000000000000000000000000000000000000a01dcc4de8dec75d7aab85b567b6ccd41ad312451b948a7413f0a142fd40d49347942adc25665018aa1fe0e6bc666dac8fc2697ff9baa0137accfabce83c4f192c91b88d6e5e5e6e58afa387137b16170fafd5114d8d45a056e81f171bcc55a6ff8345e692c0f86e5b48e01b996cadc001622fb5e363b421a056e81f171bcc55a6ff8345e692c0f86e5b48e01b996cadc001622fb5e363b421b9010000000000000000000000000000000000000000000000000000000000000000000000000000000000000000000000000000000000000000000000000000000000000000000000000000000000000000000000000000000000000000000000000000000000000000000000000000000000000000000000000000000000000000000000000000000000000000000000000000000000000000000000000000000000000000000000000000000000000000000000000000000000000000000000000000000000000000000000000000000000000000000000000000000000000000000000000000000000000000000000000000000000000000000000000000000000830200008083989680808203e842a00000000000000000000000000000000000000000000000000000000000000000880000000000000000c0c0",
        "lastblockhash" : "0x0f239a780ff30676c2f3b185a17b80a14de3efe7667051ff78e8f4b18f791c3f",
        "network" : "Berlin",
        "postState" : {
            "0xa94f5374fce5edbc8e2a8697c15331677e6ebf0b" : {
                "balance" : "0xe8d4a51000",
                "code" : "0x",
                "nonce" : "0x00",
                "storage" : {
                }
            },
            "0xb94f5374fce5edbc8e2a8697c15331677e6ebf0b" : {
                "balance" : "0x00",
                "code" : "0x",
                "nonce" : "0x00",
                "storage" : {
                }
            }
        },
        "pre" : {
            "0xa94f5374fce5edbc8e2a8697c15331677e6ebf0b" : {
                "balance" : "0xe8d4a51000",
                "code" : "0x",
                "nonce" : "0x00",
                "storage" : {
                }
            },
            "0xb94f5374fce5edbc8e2a8697c15331677e6ebf0b" : {
                "balance" : "0x00",
                "code" : "0x",
                "nonce" : "0x00",
                "storage" : {
                }
            }
        },
        "sealEngine" : "NoProof"
    },
    "LegacyTests/Cancun/BlockchainTests/InvalidBlocks/bcStateTests/ZeroValue_TransactionCALL_ToEmpty_OOGRevert.json::ZeroValue_TransactionCALL_ToEmpty_OOGRevert_Istanbul" : {
        "_info" : {
            "comment" : "intrinsic oog revert",
            "filling-rpc-server" : "evmone-t8n 0.15.0+commit.18b8e952",
            "filling-tool-version" : "retesteth-0.3.3-discontinued+commit.f30e58c2.Linux.g++",
            "fixture-format" : "blockchain_test",
            "hash" : "0x261821d5d9a6fbae50ff217893062f58ee6bddfe7f8166bb31d2f80aa14fa47d",
            "lllcversion" : "Version: 0.5.14-develop.2024.11.5+commit.b2b86751.mod.Linux.g++",
            "repo" : "ethereum/tests",
            "solidity" : "Version: 0.8.24+commit.e11b9ed9.Linux.g++",
            "source" : "LegacyTests/src/LegacyTests/Cancun/BlockchainTestsFiller/InvalidBlocks/bcStateTests/ZeroValue_TransactionCALL_ToEmpty_OOGRevertFiller.json",
            "sourceHash" : "0x8efca1a88f20ad3acaf33c021e5af6fb70a21541c933fc005b97f1dc7d53292b"
        },
        "blocks" : [
            {
                "blocknumber" : "1",
                "chainname" : "default",
                "expectException" : "TR_IntrinsicGas",
                "rlp" : "0xf9025ef901f5a00f239a780ff30676c2f3b185a17b80a14de3efe7667051ff78e8f4b18f791c3fa01dcc4de8dec75d7aab85b567b6ccd41ad312451b948a7413f0a142fd40d49347942adc25665018aa1fe0e6bc666dac8fc2697ff9baa0ac0fd0e85dd635c869a69c1a89b4982ce862f6e996aac792aaf1252243e24cc3a056e81f171bcc55a6ff8345e692c0f86e5b48e01b996cadc001622fb5e363b421a056e81f171bcc55a6ff8345e692c0f86e5b48e01b996cadc001622fb5e363b421b9010000000000000000000000000000000000000000000000000000000000000000000000000000000000000000000000000000000000000000000000000000000000000000000000000000000000000000000000000000000000000000000000000000000000000000000000000000000000000000000000000000000000000000000000000000000000000000000000000000000000000000000000000000000000000000000000000000000000000000000000000000000000000000000000000000000000000000000000000000000000000000000000000000000000000000000000000000000000000000000000000000000000000000000000000000000000830200000183989680808207d042a00000000000000000000000000000000000000000000000000000000000000000880000000000000000f863f861808203e8824e2094b94f5374fce5edbc8e2a8697c15331677e6ebf0b80801ca0c153e52971eb13c8353c6c3a6f5ccbbe41273af2db9743b664e125113187d56fa013c21557bee4342ff0fa2cbf533798b854b7b7547fa3d3519387ce696fb1e443c0",
                "rlp_decoded" : {
                    "blockHeader" : {
                        "bloom" : "0x00000000000000000000000000000000000000000000000000000000000000000000000000000000000000000000000000000000000000000000000000000000000000000000000000000000000000000000000000000000000000000000000000000000000000000000000000000000000000000000000000000000000000000000000000000000000000000000000000000000000000000000000000000000000000000000000000000000000000000000000000000000000000000000000000000000000000000000000000000000000000000000000000000000000000000000000000000000000000000000000000000000000000000000000000000000",
                        "coinbase" : "0x2adc25665018aa1fe0e6bc666dac8fc2697ff9ba",
                        "difficulty" : "0x020000",
                        "extraData" : "0x42",
                        "gasLimit" : "0x989680",
                        "gasUsed" : "0x00",
                        "hash" : "0xa65516ded5792550c2ec9fe88690b1dd471595dd9baf3eedce9e04abeb558ba0",
                        "mixHash" : "0x0000000000000000000000000000000000000000000000000000000000000000",
                        "nonce" : "0x0000000000000000",
                        "number" : "0x01",
                        "parentHash" : "0x0f239a780ff30676c2f3b185a17b80a14de3efe7667051ff78e8f4b18f791c3f",
                        "receiptTrie" : "0x56e81f171bcc55a6ff8345e692c0f86e5b48e01b996cadc001622fb5e363b421",
                        "stateRoot" : "0xac0fd0e85dd635c869a69c1a89b4982ce862f6e996aac792aaf1252243e24cc3",
                        "timestamp" : "0x07d0",
                        "transactionsTrie" : "0x56e81f171bcc55a6ff8345e692c0f86e5b48e01b996cadc001622fb5e363b421",
                        "uncleHash" : "0x1dcc4de8dec75d7aab85b567b6ccd41ad312451b948a7413f0a142fd40d49347"
                    },
                    "transactions" : [
                        {
                            "data" : "0x",
                            "gasLimit" : "0x4e20",
                            "gasPrice" : "0x03e8",
                            "nonce" : "0x00",
                            "r" : "0xc153e52971eb13c8353c6c3a6f5ccbbe41273af2db9743b664e125113187d56f",
                            "s" : "0x13c21557bee4342ff0fa2cbf533798b854b7b7547fa3d3519387ce696fb1e443",
                            "sender" : "0xa94f5374fce5edbc8e2a8697c15331677e6ebf0b",
                            "to" : "0xb94f5374fce5edbc8e2a8697c15331677e6ebf0b",
                            "v" : "0x1c",
                            "value" : "0x00"
                        }
                    ],
                    "uncleHeaders" : [
                    ],
                    "withdrawals" : [
                    ]
                }
            }
        ],
        "genesisBlockHeader" : {
            "bloom" : "0x00000000000000000000000000000000000000000000000000000000000000000000000000000000000000000000000000000000000000000000000000000000000000000000000000000000000000000000000000000000000000000000000000000000000000000000000000000000000000000000000000000000000000000000000000000000000000000000000000000000000000000000000000000000000000000000000000000000000000000000000000000000000000000000000000000000000000000000000000000000000000000000000000000000000000000000000000000000000000000000000000000000000000000000000000000000",
            "coinbase" : "0x2adc25665018aa1fe0e6bc666dac8fc2697ff9ba",
            "difficulty" : "0x020000",
            "extraData" : "0x42",
            "gasLimit" : "0x989680",
            "gasUsed" : "0x00",
            "hash" : "0x0f239a780ff30676c2f3b185a17b80a14de3efe7667051ff78e8f4b18f791c3f",
            "mixHash" : "0x0000000000000000000000000000000000000000000000000000000000000000",
            "nonce" : "0x0000000000000000",
            "number" : "0x00",
            "parentHash" : "0x0000000000000000000000000000000000000000000000000000000000000000",
            "receiptTrie" : "0x56e81f171bcc55a6ff8345e692c0f86e5b48e01b996cadc001622fb5e363b421",
            "stateRoot" : "0x137accfabce83c4f192c91b88d6e5e5e6e58afa387137b16170fafd5114d8d45",
            "timestamp" : "0x03e8",
            "transactionsTrie" : "0x56e81f171bcc55a6ff8345e692c0f86e5b48e01b996cadc001622fb5e363b421",
            "uncleHash" : "0x1dcc4de8dec75d7aab85b567b6ccd41ad312451b948a7413f0a142fd40d49347"
        },
        "genesisRLP" : "0xf901faf901f5a00000000000000000000000000000000000000000000000000000000000000000a01dcc4de8dec75d7aab85b567b6ccd41ad312451b948a7413f0a142fd40d49347942adc25665018aa1fe0e6bc666dac8fc2697ff9baa0137accfabce83c4f192c91b88d6e5e5e6e58afa387137b16170fafd5114d8d45a056e81f171bcc55a6ff8345e692c0f86e5b48e01b996cadc001622fb5e363b421a056e81f171bcc55a6ff8345e692c0f86e5b48e01b996cadc001622fb5e363b421b9010000000000000000000000000000000000000000000000000000000000000000000000000000000000000000000000000000000000000000000000000000000000000000000000000000000000000000000000000000000000000000000000000000000000000000000000000000000000000000000000000000000000000000000000000000000000000000000000000000000000000000000000000000000000000000000000000000000000000000000000000000000000000000000000000000000000000000000000000000000000000000000000000000000000000000000000000000000000000000000000000000000000000000000000000000000000830200008083989680808203e842a00000000000000000000000000000000000000000000000000000000000000000880000000000000000c0c0",
        "lastblockhash" : "0x0f239a780ff30676c2f3b185a17b80a14de3efe7667051ff78e8f4b18f791c3f",
        "network" : "Istanbul",
        "postState" : {
            "0xa94f5374fce5edbc8e2a8697c15331677e6ebf0b" : {
                "balance" : "0xe8d4a51000",
                "code" : "0x",
                "nonce" : "0x00",
                "storage" : {
                }
            },
            "0xb94f5374fce5edbc8e2a8697c15331677e6ebf0b" : {
                "balance" : "0x00",
                "code" : "0x",
                "nonce" : "0x00",
                "storage" : {
                }
            }
        },
        "pre" : {
            "0xa94f5374fce5edbc8e2a8697c15331677e6ebf0b" : {
                "balance" : "0xe8d4a51000",
                "code" : "0x",
                "nonce" : "0x00",
                "storage" : {
                }
            },
            "0xb94f5374fce5edbc8e2a8697c15331677e6ebf0b" : {
                "balance" : "0x00",
                "code" : "0x",
                "nonce" : "0x00",
                "storage" : {
                }
            }
        },
        "sealEngine" : "NoProof"
    },
    "LegacyTests/Cancun/BlockchainTests/InvalidBlocks/bcStateTests/ZeroValue_TransactionCALL_ToEmpty_OOGRevert.json::ZeroValue_TransactionCALL_ToEmpty_OOGRevert_London" : {
        "_info" : {
            "comment" : "intrinsic oog revert",
            "filling-rpc-server" : "evmone-t8n 0.15.0+commit.18b8e952",
            "filling-tool-version" : "retesteth-0.3.3-discontinued+commit.f30e58c2.Linux.g++",
            "fixture-format" : "blockchain_test",
            "hash" : "0x91a0f7947544eeea93924142a4e97f390d312ca6755e0bea0083adb708afc337",
            "lllcversion" : "Version: 0.5.14-develop.2024.11.5+commit.b2b86751.mod.Linux.g++",
            "repo" : "ethereum/tests",
            "solidity" : "Version: 0.8.24+commit.e11b9ed9.Linux.g++",
            "source" : "LegacyTests/src/LegacyTests/Cancun/BlockchainTestsFiller/InvalidBlocks/bcStateTests/ZeroValue_TransactionCALL_ToEmpty_OOGRevertFiller.json",
            "sourceHash" : "0x8efca1a88f20ad3acaf33c021e5af6fb70a21541c933fc005b97f1dc7d53292b"
        },
        "blocks" : [
            {
                "blocknumber" : "1",
                "chainname" : "default",
                "expectException" : "TR_IntrinsicGas",
                "rlp" : "0xf9025ff901f6a01c3bddd19690f1e76ed2735e2734ed2e10f125c64cff019cd947d643f3bbd557a01dcc4de8dec75d7aab85b567b6ccd41ad312451b948a7413f0a142fd40d49347942adc25665018aa1fe0e6bc666dac8fc2697ff9baa0ac0fd0e85dd635c869a69c1a89b4982ce862f6e996aac792aaf1252243e24cc3a056e81f171bcc55a6ff8345e692c0f86e5b48e01b996cadc001622fb5e363b421a056e81f171bcc55a6ff8345e692c0f86e5b48e01b996cadc001622fb5e363b421b9010000000000000000000000000000000000000000000000000000000000000000000000000000000000000000000000000000000000000000000000000000000000000000000000000000000000000000000000000000000000000000000000000000000000000000000000000000000000000000000000000000000000000000000000000000000000000000000000000000000000000000000000000000000000000000000000000000000000000000000000000000000000000000000000000000000000000000000000000000000000000000000000000000000000000000000000000000000000000000000000000000000000000000000000000000000000830200000183989680808207d042a000000000000000000000000000000000000000000000000000000000000000008800000000000000000ef863f861808203e8824e2094b94f5374fce5edbc8e2a8697c15331677e6ebf0b80801ca0c153e52971eb13c8353c6c3a6f5ccbbe41273af2db9743b664e125113187d56fa013c21557bee4342ff0fa2cbf533798b854b7b7547fa3d3519387ce696fb1e443c0",
                "rlp_decoded" : {
                    "blockHeader" : {
                        "baseFeePerGas" : "0x0e",
                        "bloom" : "0x00000000000000000000000000000000000000000000000000000000000000000000000000000000000000000000000000000000000000000000000000000000000000000000000000000000000000000000000000000000000000000000000000000000000000000000000000000000000000000000000000000000000000000000000000000000000000000000000000000000000000000000000000000000000000000000000000000000000000000000000000000000000000000000000000000000000000000000000000000000000000000000000000000000000000000000000000000000000000000000000000000000000000000000000000000000",
                        "coinbase" : "0x2adc25665018aa1fe0e6bc666dac8fc2697ff9ba",
                        "difficulty" : "0x020000",
                        "extraData" : "0x42",
                        "gasLimit" : "0x989680",
                        "gasUsed" : "0x00",
                        "hash" : "0x2bc03bb778f8a2f8866248de684382344849866cd60613ee935842ca8793b614",
                        "mixHash" : "0x0000000000000000000000000000000000000000000000000000000000000000",
                        "nonce" : "0x0000000000000000",
                        "number" : "0x01",
                        "parentHash" : "0x1c3bddd19690f1e76ed2735e2734ed2e10f125c64cff019cd947d643f3bbd557",
                        "receiptTrie" : "0x56e81f171bcc55a6ff8345e692c0f86e5b48e01b996cadc001622fb5e363b421",
                        "stateRoot" : "0xac0fd0e85dd635c869a69c1a89b4982ce862f6e996aac792aaf1252243e24cc3",
                        "timestamp" : "0x07d0",
                        "transactionsTrie" : "0x56e81f171bcc55a6ff8345e692c0f86e5b48e01b996cadc001622fb5e363b421",
                        "uncleHash" : "0x1dcc4de8dec75d7aab85b567b6ccd41ad312451b948a7413f0a142fd40d49347"
                    },
                    "transactions" : [
                        {
                            "data" : "0x",
                            "gasLimit" : "0x4e20",
                            "gasPrice" : "0x03e8",
                            "nonce" : "0x00",
                            "r" : "0xc153e52971eb13c8353c6c3a6f5ccbbe41273af2db9743b664e125113187d56f",
                            "s" : "0x13c21557bee4342ff0fa2cbf533798b854b7b7547fa3d3519387ce696fb1e443",
                            "sender" : "0xa94f5374fce5edbc8e2a8697c15331677e6ebf0b",
                            "to" : "0xb94f5374fce5edbc8e2a8697c15331677e6ebf0b",
                            "v" : "0x1c",
                            "value" : "0x00"
                        }
                    ],
                    "uncleHeaders" : [
                    ],
                    "withdrawals" : [
                    ]
                }
            }
        ],
        "genesisBlockHeader" : {
            "baseFeePerGas" : "0x10",
            "bloom" : "0x00000000000000000000000000000000000000000000000000000000000000000000000000000000000000000000000000000000000000000000000000000000000000000000000000000000000000000000000000000000000000000000000000000000000000000000000000000000000000000000000000000000000000000000000000000000000000000000000000000000000000000000000000000000000000000000000000000000000000000000000000000000000000000000000000000000000000000000000000000000000000000000000000000000000000000000000000000000000000000000000000000000000000000000000000000000",
            "coinbase" : "0x2adc25665018aa1fe0e6bc666dac8fc2697ff9ba",
            "difficulty" : "0x020000",
            "extraData" : "0x42",
            "gasLimit" : "0x989680",
            "gasUsed" : "0x00",
            "hash" : "0x1c3bddd19690f1e76ed2735e2734ed2e10f125c64cff019cd947d643f3bbd557",
            "mixHash" : "0x0000000000000000000000000000000000000000000000000000000000000000",
            "nonce" : "0x0000000000000000",
            "number" : "0x00",
            "parentHash" : "0x0000000000000000000000000000000000000000000000000000000000000000",
            "receiptTrie" : "0x56e81f171bcc55a6ff8345e692c0f86e5b48e01b996cadc001622fb5e363b421",
            "stateRoot" : "0x137accfabce83c4f192c91b88d6e5e5e6e58afa387137b16170fafd5114d8d45",
            "timestamp" : "0x03e8",
            "transactionsTrie" : "0x56e81f171bcc55a6ff8345e692c0f86e5b48e01b996cadc001622fb5e363b421",
            "uncleHash" : "0x1dcc4de8dec75d7aab85b567b6ccd41ad312451b948a7413f0a142fd40d49347"
        },
        "genesisRLP" : "0xf901fbf901f6a00000000000000000000000000000000000000000000000000000000000000000a01dcc4de8dec75d7aab85b567b6ccd41ad312451b948a7413f0a142fd40d49347942adc25665018aa1fe0e6bc666dac8fc2697ff9baa0137accfabce83c4f192c91b88d6e5e5e6e58afa387137b16170fafd5114d8d45a056e81f171bcc55a6ff8345e692c0f86e5b48e01b996cadc001622fb5e363b421a056e81f171bcc55a6ff8345e692c0f86e5b48e01b996cadc001622fb5e363b421b9010000000000000000000000000000000000000000000000000000000000000000000000000000000000000000000000000000000000000000000000000000000000000000000000000000000000000000000000000000000000000000000000000000000000000000000000000000000000000000000000000000000000000000000000000000000000000000000000000000000000000000000000000000000000000000000000000000000000000000000000000000000000000000000000000000000000000000000000000000000000000000000000000000000000000000000000000000000000000000000000000000000000000000000000000000000000830200008083989680808203e842a0000000000000000000000000000000000000000000000000000000000000000088000000000000000010c0c0",
        "lastblockhash" : "0x1c3bddd19690f1e76ed2735e2734ed2e10f125c64cff019cd947d643f3bbd557",
        "network" : "London",
        "postState" : {
            "0xa94f5374fce5edbc8e2a8697c15331677e6ebf0b" : {
                "balance" : "0xe8d4a51000",
                "code" : "0x",
                "nonce" : "0x00",
                "storage" : {
                }
            },
            "0xb94f5374fce5edbc8e2a8697c15331677e6ebf0b" : {
                "balance" : "0x00",
                "code" : "0x",
                "nonce" : "0x00",
                "storage" : {
                }
            }
        },
        "pre" : {
            "0xa94f5374fce5edbc8e2a8697c15331677e6ebf0b" : {
                "balance" : "0xe8d4a51000",
                "code" : "0x",
                "nonce" : "0x00",
                "storage" : {
                }
            },
            "0xb94f5374fce5edbc8e2a8697c15331677e6ebf0b" : {
                "balance" : "0x00",
                "code" : "0x",
                "nonce" : "0x00",
                "storage" : {
                }
            }
        },
        "sealEngine" : "NoProof"
    }
}